{
  "contractName": "SHILLINMarket",
  "abi": [
    {
      "inputs": [],
      "stateMutability": "nonpayable",
      "type": "constructor"
    },
    {
      "anonymous": false,
      "inputs": [
        {
          "indexed": true,
          "internalType": "uint256",
          "name": "itemId",
          "type": "uint256"
        },
        {
          "indexed": true,
          "internalType": "address",
          "name": "nftContract",
          "type": "address"
        },
        {
          "indexed": true,
          "internalType": "uint256",
          "name": "tokenId",
          "type": "uint256"
        },
        {
          "indexed": false,
          "internalType": "address",
          "name": "seller",
          "type": "address"
        },
        {
          "indexed": false,
          "internalType": "address",
          "name": "owner",
          "type": "address"
        },
        {
          "indexed": false,
          "internalType": "uint256",
          "name": "price",
          "type": "uint256"
        }
      ],
      "name": "MarketItemListed",
      "type": "event"
    },
    {
      "inputs": [
        {
          "internalType": "uint256",
          "name": "marketItemId",
          "type": "uint256"
        }
      ],
      "name": "getMarketItem",
      "outputs": [
        {
          "components": [
            {
              "internalType": "uint256",
              "name": "itemId",
              "type": "uint256"
            },
            {
              "internalType": "address",
              "name": "nftContract",
              "type": "address"
            },
            {
              "internalType": "uint256",
              "name": "tokenId",
              "type": "uint256"
            },
            {
              "internalType": "address payable",
              "name": "seller",
              "type": "address"
            },
            {
              "internalType": "address payable",
              "name": "owner",
              "type": "address"
            },
            {
              "internalType": "uint256",
              "name": "price",
              "type": "uint256"
            }
          ],
          "internalType": "struct SHILLINMarket.MarketItem",
          "name": "",
          "type": "tuple"
        }
      ],
      "stateMutability": "view",
      "type": "function",
      "constant": true
    },
    {
      "inputs": [
        {
          "internalType": "address",
          "name": "nftContract",
          "type": "address"
        },
        {
          "internalType": "uint256",
          "name": "tokenId",
          "type": "uint256"
        },
        {
          "internalType": "uint256",
          "name": "price",
          "type": "uint256"
        }
      ],
      "name": "listOnMarket",
      "outputs": [],
      "stateMutability": "nonpayable",
      "type": "function"
    },
    {
      "inputs": [
        {
          "internalType": "address",
          "name": "nftContract",
          "type": "address"
        },
        {
          "internalType": "uint256",
          "name": "itemId",
          "type": "uint256"
        }
      ],
      "name": "buy",
      "outputs": [],
      "stateMutability": "payable",
      "type": "function",
      "payable": true
    },
    {
      "inputs": [],
      "name": "fetchMarketItems",
      "outputs": [
        {
          "components": [
            {
              "internalType": "uint256",
              "name": "itemId",
              "type": "uint256"
            },
            {
              "internalType": "address",
              "name": "nftContract",
              "type": "address"
            },
            {
              "internalType": "uint256",
              "name": "tokenId",
              "type": "uint256"
            },
            {
              "internalType": "address payable",
              "name": "seller",
              "type": "address"
            },
            {
              "internalType": "address payable",
              "name": "owner",
              "type": "address"
            },
            {
              "internalType": "uint256",
              "name": "price",
              "type": "uint256"
            }
          ],
          "internalType": "struct SHILLINMarket.MarketItem[]",
          "name": "",
          "type": "tuple[]"
        }
      ],
      "stateMutability": "view",
      "type": "function",
      "constant": true
    },
    {
      "inputs": [],
      "name": "fetchMyNFTs",
      "outputs": [
        {
          "components": [
            {
              "internalType": "uint256",
              "name": "itemId",
              "type": "uint256"
            },
            {
              "internalType": "address",
              "name": "nftContract",
              "type": "address"
            },
            {
              "internalType": "uint256",
              "name": "tokenId",
              "type": "uint256"
            },
            {
              "internalType": "address payable",
              "name": "seller",
              "type": "address"
            },
            {
              "internalType": "address payable",
              "name": "owner",
              "type": "address"
            },
            {
              "internalType": "uint256",
              "name": "price",
              "type": "uint256"
            }
          ],
          "internalType": "struct SHILLINMarket.MarketItem[]",
          "name": "",
          "type": "tuple[]"
        }
      ],
      "stateMutability": "view",
      "type": "function",
      "constant": true
    },
    {
      "inputs": [],
      "name": "fetchMyListedNFT",
      "outputs": [
        {
          "components": [
            {
              "internalType": "uint256",
              "name": "itemId",
              "type": "uint256"
            },
            {
              "internalType": "address",
              "name": "nftContract",
              "type": "address"
            },
            {
              "internalType": "uint256",
              "name": "tokenId",
              "type": "uint256"
            },
            {
              "internalType": "address payable",
              "name": "seller",
              "type": "address"
            },
            {
              "internalType": "address payable",
              "name": "owner",
              "type": "address"
            },
            {
              "internalType": "uint256",
              "name": "price",
              "type": "uint256"
            }
          ],
          "internalType": "struct SHILLINMarket.MarketItem[]",
          "name": "",
          "type": "tuple[]"
        }
      ],
      "stateMutability": "view",
      "type": "function",
      "constant": true
    }
  ],
  "bytecode": "0x608060405234801561001057600080fd5b506001600055600380546001600160a01b03191633179055610d78806100376000396000f3fe6080604052600436106100555760003560e01c80630f08efe01461005a578063202e3740146100855780635a5921c31461009a5780637af55993146100af578063c7be7a49146100d1578063cce7ec13146100fe575b600080fd5b34801561006657600080fd5b5061006f610111565b60405161007c9190610c54565b60405180910390f35b34801561009157600080fd5b5061006f6102a0565b3480156100a657600080fd5b5061006f61046d565b3480156100bb57600080fd5b506100cf6100ca366004610bbe565b61063a565b005b3480156100dd57600080fd5b506100f16100ec366004610bf1565b610893565b60405161007c9190610ca2565b6100cf61010c366004610b94565b610900565b6060600061011e60015490565b9050600061012b60025490565b6001546101389190610cce565b90506000808267ffffffffffffffff81111561015657610156610d2c565b60405190808252806020026020018201604052801561018f57816020015b61017c610b27565b8152602001906001900390816101745790505b50905060005b848110156102975760006005816101ad846001610cb6565b81526020810191909152604001600020600401546001600160a01b031614156102855760006005816101e0846001610cb6565b81526020808201929092526040908101600090812054808252600580855291839020835160c0810185528154815260018201546001600160a01b0390811696820196909652600282015494810194909452600381015485166060850152600481015490941660808401529083015460a0830152855190935085908790811061026a5761026a610d16565b6020908102919091010152610280600186610cb6565b945050505b8061028f81610ce5565b915050610195565b50949350505050565b606060006102ad60015490565b905060008060005b838110156103105733600560006102cd846001610cb6565b81526020810191909152604001600020600401546001600160a01b031614156102fe576102fb600184610cb6565b92505b8061030881610ce5565b9150506102b5565b5060008267ffffffffffffffff81111561032c5761032c610d2c565b60405190808252806020026020018201604052801561036557816020015b610352610b27565b81526020019060019003908161034a5790505b50905060005b84811015610297573360056000610383846001610cb6565b81526020810191909152604001600020600401546001600160a01b0316141561045b5760006005816103b6846001610cb6565b81526020808201929092526040908101600090812054808252600580855291839020835160c0810185528154815260018201546001600160a01b0390811696820196909652600282015494810194909452600381015485166060850152600481015490941660808401529083015460a0830152855190935085908790811061044057610440610d16565b6020908102919091010152610456600186610cb6565b945050505b8061046581610ce5565b91505061036b565b6060600061047a60015490565b905060008060005b838110156104dd57336005600061049a846001610cb6565b81526020810191909152604001600020600301546001600160a01b031614156104cb576104c8600184610cb6565b92505b806104d581610ce5565b915050610482565b5060008267ffffffffffffffff8111156104f9576104f9610d2c565b60405190808252806020026020018201604052801561053257816020015b61051f610b27565b8152602001906001900390816105175790505b50905060005b84811015610297573360056000610550846001610cb6565b81526020810191909152604001600020600301546001600160a01b03161415610628576000600581610583846001610cb6565b81526020808201929092526040908101600090812054808252600580855291839020835160c0810185528154815260018201546001600160a01b0390811696820196909652600282015494810194909452600381015485166060850152600481015490941660808401529083015460a0830152855190935085908790811061060d5761060d610d16565b6020908102919091010152610623600186610cb6565b945050505b8061063281610ce5565b915050610538565b600260005414156106925760405162461bcd60e51b815260206004820152601f60248201527f5265656e7472616e637947756172643a207265656e7472616e742063616c6c0060448201526064015b60405180910390fd5b6002600055806106e45760405162461bcd60e51b815260206004820152601c60248201527f5072696365206d757374206265206174206c65617374203120776569000000006044820152606401610689565b6106f2600180546001019055565b60006106fd60015490565b6003546004546040519293506001600160a01b039091169181156108fc0291906000818181858888f1935050505015801561073c573d6000803e3d6000fd5b506040805160c0810182528281526001600160a01b038681166020808401828152848601898152336060870181815260006080890181815260a08a018d81528c8352600597889052918b902099518a55945160018a018054918a166001600160a01b0319928316179055935160028a015590516003890180549189169185169190911790559251600480890180549290981691909316179095559051949091019390935592516323b872dd60e01b815291820152306024820152604481018590526323b872dd90606401600060405180830381600087803b15801561082057600080fd5b505af1158015610834573d6000803e3d6000fd5b505060408051338152600060208201529081018590528592506001600160a01b038716915083907f3ace6c0795583be5a3d695c6d91a02885edf298c6854b9801b4791aa52c082279060600160405180910390a4505060016000555050565b61089b610b27565b50600090815260056020818152604092839020835160c0810185528154815260018201546001600160a01b039081169382019390935260028201549481019490945260038101548216606085015260048101549091166080840152015460a082015290565b600260005414156109535760405162461bcd60e51b815260206004820152601f60248201527f5265656e7472616e637947756172643a207265656e7472616e742063616c6c006044820152606401610689565b60026000818155828152600560208190526040909120908101549101543482146109e7576040805162461bcd60e51b81526020600482015260248101919091527f506c65617365207375626d6974207468652061736b696e67207072696365206960448201527f6e206f7264657220746f20636f6d706c657465207468652070757263686173656064820152608401610689565b6000838152600560205260409020600401546001600160a01b031615610a3e5760405162461bcd60e51b815260206004820152600c60248201526b105b1c9958591e4814dbdb1960a21b6044820152606401610689565b6000838152600560205260408082206003015490516001600160a01b03909116913480156108fc02929091818181858888f19350505050158015610a86573d6000803e3d6000fd5b506040516323b872dd60e01b8152306004820152336024820152604481018290526001600160a01b038516906323b872dd90606401600060405180830381600087803b158015610ad557600080fd5b505af1158015610ae9573d6000803e3d6000fd5b505050600084815260056020526040902060040180546001600160a01b0319163317905550610b1c600280546001019055565b505060016000555050565b6040518060c001604052806000815260200160006001600160a01b031681526020016000815260200160006001600160a01b0316815260200160006001600160a01b03168152602001600081525090565b80356001600160a01b0381168114610b8f57600080fd5b919050565b60008060408385031215610ba757600080fd5b610bb083610b78565b946020939093013593505050565b600080600060608486031215610bd357600080fd5b610bdc84610b78565b95602085013595506040909401359392505050565b600060208284031215610c0357600080fd5b5035919050565b80518252602081015160018060a01b03808216602085015260408301516040850152806060840151166060850152806080840151166080850152505060a081015160a08301525050565b6020808252825182820181905260009190848201906040850190845b81811015610c9657610c83838551610c0a565b9284019260c09290920191600101610c70565b50909695505050505050565b60c08101610cb08284610c0a565b92915050565b60008219821115610cc957610cc9610d00565b500190565b600082821015610ce057610ce0610d00565b500390565b6000600019821415610cf957610cf9610d00565b5060010190565b634e487b7160e01b600052601160045260246000fd5b634e487b7160e01b600052603260045260246000fd5b634e487b7160e01b600052604160045260246000fdfea264697066735822122037939d8805ade39f21feb1b4b400e1f5f126c8b89132daaa30a658937e5f35e064736f6c63430008070033",
  "immutableReferences": {},
  "source": "/***\n * \n * \n * \n * Written by Nawab Khairuzzaman Mohammad Kibria\n * Github Url : https://github.com/nawab69\n */\n\n// SPDX-License-Identifier: MIT\npragma solidity >=0.8.0 <0.9.0;\n\nimport \"@openzeppelin/contracts/token/ERC721/ERC721.sol\";\nimport \"@openzeppelin/contracts/token/ERC721/IERC721Receiver.sol\";\nimport \"@openzeppelin/contracts/utils/Counters.sol\";\nimport \"@openzeppelin/contracts/utils/math/SafeMath.sol\";\nimport \"@openzeppelin/contracts/token/ERC20/IERC20.sol\";\nimport \"@openzeppelin/contracts/security/ReentrancyGuard.sol\";\n\ncontract SHILLINMarket is ReentrancyGuard {\n    using SafeMath for uint;\n    using Counters for Counters.Counter;\n    Counters.Counter private _itemIds;\n    Counters.Counter private _itemsSold;\n    address payable owner;\n    uint256 listingPrice;\n    \n    constructor() {\n        owner = payable(msg.sender);\n    }\n    \n    struct MarketItem {\n        uint itemId;\n        address nftContract;\n        uint256 tokenId;\n        address payable seller;\n        address payable owner;\n        uint256 price;\n    }\n    \n    mapping(uint256 => MarketItem) private idToMarketItem;\n    \n    event MarketItemListed (\n        uint indexed itemId,\n        address indexed nftContract,\n        uint256 indexed tokenId,\n        address seller,\n        address owner,\n        uint256 price\n    );\n    \n    function getMarketItem(uint256 marketItemId) public view returns (MarketItem memory) {\n        return idToMarketItem[marketItemId];\n    }\n    \n    function listOnMarket(address nftContract, uint256 tokenId, uint256 price) public nonReentrant {\n        require(price > 0, \"Price must be at least 1 wei\");\n        _itemIds.increment();\n        uint256 itemId = _itemIds.current();\n        payable(owner).transfer(listingPrice);\n        idToMarketItem[itemId] =  MarketItem(\n          itemId,\n          nftContract,\n          tokenId,\n          payable(msg.sender),\n          payable(address(0)),\n          price\n        );\n    \n        IERC721(nftContract).transferFrom(msg.sender, address(this), tokenId);\n    \n        emit MarketItemListed(\n          itemId,\n          nftContract,\n          tokenId,\n          msg.sender,\n          address(0),\n          price\n        );\n    }\n\n    function buy( address nftContract, uint256 itemId) public payable nonReentrant {\n        uint price = idToMarketItem[itemId].price;\n        uint tokenId = idToMarketItem[itemId].tokenId;\n        require(msg.value == price, \"Please submit the asking price in order to complete the purchase\");\n        require(idToMarketItem[itemId].owner == address(0), \"Already Sold\");\n        idToMarketItem[itemId].seller.transfer(msg.value);\n        IERC721(nftContract).transferFrom(address(this), msg.sender, tokenId);\n        idToMarketItem[itemId].owner = payable(msg.sender);\n        _itemsSold.increment();\n    }\n  \n  \n\n    function fetchMarketItems() public view returns (MarketItem[] memory) {\n        uint itemCount = _itemIds.current();\n        uint unsoldItemCount = _itemIds.current() - _itemsSold.current();\n        uint currentIndex = 0;\n        MarketItem[] memory items = new MarketItem[](unsoldItemCount);\n        for (uint i = 0; i < itemCount; i++) {\n          if (idToMarketItem[i + 1].owner == address(0)) {\n            uint currentId = idToMarketItem[i + 1].itemId;\n            MarketItem storage currentItem = idToMarketItem[currentId];\n            items[currentIndex] = currentItem;\n            currentIndex += 1;\n          }\n        }\n        return items;\n    }\n  \n    function fetchMyNFTs() public view returns (MarketItem[] memory) {\n        uint totalItemCount = _itemIds.current();\n        uint itemCount = 0;\n        uint currentIndex = 0;\n    \n        for (uint i = 0; i < totalItemCount; i++) {\n          if (idToMarketItem[i + 1].owner == msg.sender) {\n            itemCount += 1;\n          }\n        }\n    \n        MarketItem[] memory items = new MarketItem[](itemCount);\n        for (uint i = 0; i < totalItemCount; i++) {\n          if (idToMarketItem[i + 1].owner == msg.sender) {\n            uint currentId = idToMarketItem[i + 1].itemId;\n            MarketItem storage currentItem = idToMarketItem[currentId];\n            items[currentIndex] = currentItem;\n            currentIndex += 1;\n          }\n        }\n        return items;\n    }\n    \n    function fetchMyListedNFT() public view returns (MarketItem[] memory) {\n        uint totalItemCount = _itemIds.current();\n        uint itemCount = 0;\n        uint currentIndex = 0;\n    \n        for (uint i = 0; i < totalItemCount; i++) {\n          if (idToMarketItem[i + 1].seller == msg.sender) {\n            itemCount += 1;\n          }\n        }\n\n        MarketItem[] memory items = new MarketItem[](itemCount);\n        \n        for (uint i = 0; i < totalItemCount; i++) {\n          if (idToMarketItem[i + 1].seller == msg.sender) {\n            uint currentId = idToMarketItem[i + 1].itemId;\n            MarketItem storage currentItem = idToMarketItem[currentId];\n            items[currentIndex] = currentItem;\n            currentIndex += 1;\n          }\n        }\n        return items;\n        \n    }\n  \n  \n\n}",
  "sourcePath": "/Users/nawab/Project/blockchain/shillzilla/contracts/SHILLINMarket.sol",
  "compiler": {
    "name": "solc",
    "version": "0.8.7+commit.e28d00a7.Emscripten.clang"
  },
  "schemaVersion": "3.4.3",
  "updatedAt": "2021-09-20T20:42:45.584Z",
  "networkType": "ethereum",
  "devdoc": {
    "kind": "dev",
    "methods": {},
    "version": 1
  },
  "userdoc": {
    "kind": "user",
    "methods": {},
    "version": 1
  }
}