{
  "contractName": "SHILLIN",
  "abi": [
    {
      "inputs": [],
      "stateMutability": "nonpayable",
      "type": "constructor"
    },
    {
      "anonymous": false,
      "inputs": [
        {
          "indexed": true,
          "internalType": "address",
          "name": "owner",
          "type": "address"
        },
        {
          "indexed": true,
          "internalType": "address",
          "name": "approved",
          "type": "address"
        },
        {
          "indexed": true,
          "internalType": "uint256",
          "name": "tokenId",
          "type": "uint256"
        }
      ],
      "name": "Approval",
      "type": "event"
    },
    {
      "anonymous": false,
      "inputs": [
        {
          "indexed": true,
          "internalType": "address",
          "name": "owner",
          "type": "address"
        },
        {
          "indexed": true,
          "internalType": "address",
          "name": "operator",
          "type": "address"
        },
        {
          "indexed": false,
          "internalType": "bool",
          "name": "approved",
          "type": "bool"
        }
      ],
      "name": "ApprovalForAll",
      "type": "event"
    },
    {
      "anonymous": false,
      "inputs": [
        {
          "indexed": true,
          "internalType": "address",
          "name": "from",
          "type": "address"
        },
        {
          "indexed": true,
          "internalType": "address",
          "name": "to",
          "type": "address"
        },
        {
          "indexed": true,
          "internalType": "uint256",
          "name": "tokenId",
          "type": "uint256"
        }
      ],
      "name": "Transfer",
      "type": "event"
    },
    {
      "inputs": [
        {
          "internalType": "address",
          "name": "to",
          "type": "address"
        },
        {
          "internalType": "uint256",
          "name": "tokenId",
          "type": "uint256"
        }
      ],
      "name": "approve",
      "outputs": [],
      "stateMutability": "nonpayable",
      "type": "function"
    },
    {
      "inputs": [
        {
          "internalType": "address",
          "name": "owner",
          "type": "address"
        }
      ],
      "name": "balanceOf",
      "outputs": [
        {
          "internalType": "uint256",
          "name": "",
          "type": "uint256"
        }
      ],
      "stateMutability": "view",
      "type": "function",
      "constant": true
    },
    {
      "inputs": [
        {
          "internalType": "uint256",
          "name": "tokenId",
          "type": "uint256"
        }
      ],
      "name": "getApproved",
      "outputs": [
        {
          "internalType": "address",
          "name": "",
          "type": "address"
        }
      ],
      "stateMutability": "view",
      "type": "function",
      "constant": true
    },
    {
      "inputs": [
        {
          "internalType": "address",
          "name": "owner",
          "type": "address"
        },
        {
          "internalType": "address",
          "name": "operator",
          "type": "address"
        }
      ],
      "name": "isApprovedForAll",
      "outputs": [
        {
          "internalType": "bool",
          "name": "",
          "type": "bool"
        }
      ],
      "stateMutability": "view",
      "type": "function",
      "constant": true
    },
    {
      "inputs": [],
      "name": "name",
      "outputs": [
        {
          "internalType": "string",
          "name": "",
          "type": "string"
        }
      ],
      "stateMutability": "view",
      "type": "function",
      "constant": true
    },
    {
      "inputs": [
        {
          "internalType": "uint256",
          "name": "tokenId",
          "type": "uint256"
        }
      ],
      "name": "ownerOf",
      "outputs": [
        {
          "internalType": "address",
          "name": "",
          "type": "address"
        }
      ],
      "stateMutability": "view",
      "type": "function",
      "constant": true
    },
    {
      "inputs": [
        {
          "internalType": "uint256",
          "name": "_tokenId",
          "type": "uint256"
        },
        {
          "internalType": "uint256",
          "name": "_salePrice",
          "type": "uint256"
        }
      ],
      "name": "royaltyInfo",
      "outputs": [
        {
          "internalType": "address",
          "name": "Receiver",
          "type": "address"
        },
        {
          "internalType": "uint256",
          "name": "royaltyAmount",
          "type": "uint256"
        }
      ],
      "stateMutability": "view",
      "type": "function",
      "constant": true
    },
    {
      "inputs": [
        {
          "internalType": "address",
          "name": "from",
          "type": "address"
        },
        {
          "internalType": "address",
          "name": "to",
          "type": "address"
        },
        {
          "internalType": "uint256",
          "name": "tokenId",
          "type": "uint256"
        }
      ],
      "name": "safeTransferFrom",
      "outputs": [],
      "stateMutability": "nonpayable",
      "type": "function"
    },
    {
      "inputs": [
        {
          "internalType": "address",
          "name": "from",
          "type": "address"
        },
        {
          "internalType": "address",
          "name": "to",
          "type": "address"
        },
        {
          "internalType": "uint256",
          "name": "tokenId",
          "type": "uint256"
        },
        {
          "internalType": "bytes",
          "name": "_data",
          "type": "bytes"
        }
      ],
      "name": "safeTransferFrom",
      "outputs": [],
      "stateMutability": "nonpayable",
      "type": "function"
    },
    {
      "inputs": [
        {
          "internalType": "address",
          "name": "operator",
          "type": "address"
        },
        {
          "internalType": "bool",
          "name": "approved",
          "type": "bool"
        }
      ],
      "name": "setApprovalForAll",
      "outputs": [],
      "stateMutability": "nonpayable",
      "type": "function"
    },
    {
      "inputs": [
        {
          "internalType": "bytes4",
          "name": "interfaceId",
          "type": "bytes4"
        }
      ],
      "name": "supportsInterface",
      "outputs": [
        {
          "internalType": "bool",
          "name": "",
          "type": "bool"
        }
      ],
      "stateMutability": "view",
      "type": "function",
      "constant": true
    },
    {
      "inputs": [],
      "name": "symbol",
      "outputs": [
        {
          "internalType": "string",
          "name": "",
          "type": "string"
        }
      ],
      "stateMutability": "view",
      "type": "function",
      "constant": true
    },
    {
      "inputs": [
        {
          "internalType": "uint256",
          "name": "tokenId",
          "type": "uint256"
        }
      ],
      "name": "tokenURI",
      "outputs": [
        {
          "internalType": "string",
          "name": "",
          "type": "string"
        }
      ],
      "stateMutability": "view",
      "type": "function",
      "constant": true
    },
    {
      "inputs": [
        {
          "internalType": "address",
          "name": "from",
          "type": "address"
        },
        {
          "internalType": "address",
          "name": "to",
          "type": "address"
        },
        {
          "internalType": "uint256",
          "name": "tokenId",
          "type": "uint256"
        }
      ],
      "name": "transferFrom",
      "outputs": [],
      "stateMutability": "nonpayable",
      "type": "function"
    },
    {
      "inputs": [
        {
          "internalType": "string",
          "name": "_tokenURI",
          "type": "string"
        },
        {
          "internalType": "uint256",
          "name": "_royalityPercentage",
          "type": "uint256"
        }
      ],
      "name": "mint",
      "outputs": [],
      "stateMutability": "nonpayable",
      "type": "function"
    },
    {
      "inputs": [
        {
          "internalType": "uint256",
          "name": "tokenId",
          "type": "uint256"
        }
      ],
      "name": "burn",
      "outputs": [],
      "stateMutability": "nonpayable",
      "type": "function"
    },
    {
      "inputs": [
        {
          "internalType": "address",
          "name": "_marketplaceContract",
          "type": "address"
        }
      ],
      "name": "setMarketPlace",
      "outputs": [],
      "stateMutability": "nonpayable",
      "type": "function"
    },
    {
      "inputs": [
        {
          "internalType": "address",
          "name": "_adminAddress",
          "type": "address"
        }
      ],
      "name": "changeAdmin",
      "outputs": [],
      "stateMutability": "nonpayable",
      "type": "function"
    },
    {
      "inputs": [],
      "name": "totalSupply",
      "outputs": [
        {
          "internalType": "uint256",
          "name": "",
          "type": "uint256"
        }
      ],
      "stateMutability": "view",
      "type": "function",
      "constant": true
    }
  ],
  "bytecode": "0x60806040523480156200001157600080fd5b50604080518082018252600781526629a424a62624a760c91b60208083019182528351808501909452600584526414d212531360da1b9084015281519192916200005e916000916200012c565b508051620000749060019060208401906200012c565b506200008b915063152a902d60e11b9050620000a8565b6001600a55600c80546001600160a01b031916331790556200020f565b6001600160e01b03198082161415620001075760405162461bcd60e51b815260206004820152601c60248201527f4552433136353a20696e76616c696420696e7465726661636520696400000000604482015260640160405180910390fd5b6001600160e01b0319166000908152600760205260409020805460ff19166001179055565b8280546200013a90620001d2565b90600052602060002090601f0160209004810192826200015e5760008555620001a9565b82601f106200017957805160ff1916838001178555620001a9565b82800160010185558215620001a9579182015b82811115620001a95782518255916020019190600101906200018c565b50620001b7929150620001bb565b5090565b5b80821115620001b75760008155600101620001bc565b600181811c90821680620001e757607f821691505b602082108114156200020957634e487b7160e01b600052602260045260246000fd5b50919050565b611b32806200021f6000396000f3fe608060405234801561001057600080fd5b50600436106101215760003560e01c806342842e0e116100ad57806395d89b411161007157806395d89b4114610283578063a22cb4651461028b578063b88d4fde1461029e578063c87b56dd146102b1578063e985e9c5146102c457600080fd5b806342842e0e1461022457806342966c68146102375780636352211e1461024a57806370a082311461025d5780638f2839701461027057600080fd5b8063095ea7b3116100f4578063095ea7b3146101a357806318160ddd146101b657806323b872dd146101cc5780632a55205a146101df57806330568a8d1461021157600080fd5b806301ffc9a714610126578063056b01ce1461014e57806306fdde0314610163578063081812fc14610178575b600080fd5b61013961013436600461177a565b610300565b60405190151581526020015b60405180910390f35b61016161015c3660046117b4565b610335565b005b61016b610462565b60405161014591906118e0565b61018b61018636600461180d565b6104f4565b6040516001600160a01b039091168152602001610145565b6101616101b1366004611750565b61057c565b6101be610692565b604051908152602001610145565b6101616101da36600461165c565b6106a2565b6101f26101ed366004611826565b6106d3565b604080516001600160a01b039093168352602083019190915201610145565b61016161021f366004611617565b610718565b61016161023236600461165c565b610751565b61016161024536600461180d565b61076c565b61018b61025836600461180d565b6107ce565b6101be61026b366004611617565b610845565b61016161027e366004611617565b6108cc565b61016b610905565b610161610299366004611714565b610914565b6101616102ac366004611698565b6109d9565b61016b6102bf36600461180d565b610a11565b6101396102d2366004611632565b6001600160a01b03918216600090815260056020908152604080832093909416825291909152205460ff1690565b600061030b82610b88565b8061032f57506001600160e01b0319821660009081526007602052604090205460ff165b92915050565b6002600a54141561038d5760405162461bcd60e51b815260206004820152601f60248201527f5265656e7472616e637947756172643a207265656e7472616e742063616c6c0060448201526064015b60405180910390fd5b6002600a5581516103d25760405162461bcd60e51b815260206004820152600f60248201526e6e6565647320746f6b656e2075726960881b6044820152606401610384565b6103e0600b80546001019055565b60006103eb600b5490565b90506103f73382610bd8565b6104018184610d0b565b600081815260086020526040902080546001600160a01b031916331790556000818152600960205260409020829055600d546001600160a01b03161561045857600d54610458906001600160a01b03166001610914565b50506001600a5550565b60606000805461047190611a24565b80601f016020809104026020016040519081016040528092919081815260200182805461049d90611a24565b80156104ea5780601f106104bf576101008083540402835291602001916104ea565b820191906000526020600020905b8154815290600101906020018083116104cd57829003601f168201915b5050505050905090565b60006104ff82610d96565b6105605760405162461bcd60e51b815260206004820152602c60248201527f4552433732313a20617070726f76656420717565727920666f72206e6f6e657860448201526b34b9ba32b73a103a37b5b2b760a11b6064820152608401610384565b506000908152600460205260409020546001600160a01b031690565b6000610587826107ce565b9050806001600160a01b0316836001600160a01b031614156105f55760405162461bcd60e51b815260206004820152602160248201527f4552433732313a20617070726f76616c20746f2063757272656e74206f776e656044820152603960f91b6064820152608401610384565b336001600160a01b0382161480610611575061061181336102d2565b6106835760405162461bcd60e51b815260206004820152603860248201527f4552433732313a20617070726f76652063616c6c6572206973206e6f74206f7760448201527f6e6572206e6f7220617070726f76656420666f7220616c6c00000000000000006064820152608401610384565b61068d8383610db3565b505050565b600061069d600b5490565b905090565b6106ac3382610e21565b6106c85760405162461bcd60e51b815260040161038490611945565b61068d838383610f07565b60008281526008602090815260408083205460099092528220546001600160a01b03909116919061070f906107098560646110a7565b906110ba565b90509250929050565b600c546001600160a01b0316331461072f57600080fd5b600d80546001600160a01b0319166001600160a01b0392909216919091179055565b61068d838383604051806020016040528060008152506109d9565b6107763382610e21565b6107c25760405162461bcd60e51b815260206004820181905260248201527f63616c6c6572206973206e6f74206f776e6572206e6f7220617070726f7665646044820152606401610384565b6107cb816110c6565b50565b6000818152600260205260408120546001600160a01b03168061032f5760405162461bcd60e51b815260206004820152602960248201527f4552433732313a206f776e657220717565727920666f72206e6f6e657869737460448201526832b73a103a37b5b2b760b91b6064820152608401610384565b60006001600160a01b0382166108b05760405162461bcd60e51b815260206004820152602a60248201527f4552433732313a2062616c616e636520717565727920666f7220746865207a65604482015269726f206164647265737360b01b6064820152608401610384565b506001600160a01b031660009081526003602052604090205490565b600c546001600160a01b031633146108e357600080fd5b600c80546001600160a01b0319166001600160a01b0392909216919091179055565b60606001805461047190611a24565b6001600160a01b03821633141561096d5760405162461bcd60e51b815260206004820152601960248201527f4552433732313a20617070726f766520746f2063616c6c6572000000000000006044820152606401610384565b3360008181526005602090815260408083206001600160a01b03871680855290835292819020805460ff191686151590811790915590519081529192917f17307eab39ab6107e8899845ad3d59bd9653f200f220920489ca2b5937696c31910160405180910390a35050565b6109e33383610e21565b6109ff5760405162461bcd60e51b815260040161038490611945565b610a0b84848484611106565b50505050565b6060610a1c82610d96565b610a825760405162461bcd60e51b815260206004820152603160248201527f45524337323155524953746f726167653a2055524920717565727920666f72206044820152703737b732bc34b9ba32b73a103a37b5b2b760791b6064820152608401610384565b60008281526006602052604081208054610a9b90611a24565b80601f0160208091040260200160405190810160405280929190818152602001828054610ac790611a24565b8015610b145780601f10610ae957610100808354040283529160200191610b14565b820191906000526020600020905b815481529060010190602001808311610af757829003601f168201915b505050505090506000610b3260408051602081019091526000815290565b9050805160001415610b45575092915050565b815115610b77578082604051602001610b5f929190611874565b60405160208183030381529060405292505050919050565b610b8084611139565b949350505050565b60006001600160e01b031982166380ac58cd60e01b1480610bb957506001600160e01b03198216635b5e139f60e01b145b8061032f57506301ffc9a760e01b6001600160e01b031983161461032f565b6001600160a01b038216610c2e5760405162461bcd60e51b815260206004820181905260248201527f4552433732313a206d696e7420746f20746865207a65726f20616464726573736044820152606401610384565b610c3781610d96565b15610c845760405162461bcd60e51b815260206004820152601c60248201527f4552433732313a20746f6b656e20616c7265616479206d696e746564000000006044820152606401610384565b6001600160a01b0382166000908152600360205260408120805460019290610cad908490611996565b909155505060008181526002602052604080822080546001600160a01b0319166001600160a01b03861690811790915590518392907fddf252ad1be2c89b69c2b068fc378daa952ba7f163c4a11628f55a4df523b3ef908290a45050565b610d1482610d96565b610d775760405162461bcd60e51b815260206004820152602e60248201527f45524337323155524953746f726167653a2055524920736574206f66206e6f6e60448201526d32bc34b9ba32b73a103a37b5b2b760911b6064820152608401610384565b6000828152600660209081526040909120825161068d928401906114b6565b6000908152600260205260409020546001600160a01b0316151590565b600081815260046020526040902080546001600160a01b0319166001600160a01b0384169081179091558190610de8826107ce565b6001600160a01b03167f8c5be1e5ebec7d5bd14f71427d1e84f3dd0314c0f7b2291e5b200ac8c7c3b92560405160405180910390a45050565b6000610e2c82610d96565b610e8d5760405162461bcd60e51b815260206004820152602c60248201527f4552433732313a206f70657261746f7220717565727920666f72206e6f6e657860448201526b34b9ba32b73a103a37b5b2b760a11b6064820152608401610384565b6000610e98836107ce565b9050806001600160a01b0316846001600160a01b03161480610ed35750836001600160a01b0316610ec8846104f4565b6001600160a01b0316145b80610b8057506001600160a01b0380821660009081526005602090815260408083209388168352929052205460ff16610b80565b826001600160a01b0316610f1a826107ce565b6001600160a01b031614610f825760405162461bcd60e51b815260206004820152602960248201527f4552433732313a207472616e73666572206f6620746f6b656e2074686174206960448201526839903737ba1037bbb760b91b6064820152608401610384565b6001600160a01b038216610fe45760405162461bcd60e51b8152602060048201526024808201527f4552433732313a207472616e7366657220746f20746865207a65726f206164646044820152637265737360e01b6064820152608401610384565b610fef600082610db3565b6001600160a01b03831660009081526003602052604081208054600192906110189084906119e1565b90915550506001600160a01b0382166000908152600360205260408120805460019290611046908490611996565b909155505060008181526002602052604080822080546001600160a01b0319166001600160a01b0386811691821790925591518493918716917fddf252ad1be2c89b69c2b068fc378daa952ba7f163c4a11628f55a4df523b3ef91a4505050565b60006110b382846119ae565b9392505050565b60006110b382846119c2565b6110cf81611210565b600081815260066020526040902080546110e890611a24565b1590506107cb5760008181526006602052604081206107cb9161153a565b611111848484610f07565b61111d848484846112ab565b610a0b5760405162461bcd60e51b8152600401610384906118f3565b606061114482610d96565b6111a85760405162461bcd60e51b815260206004820152602f60248201527f4552433732314d657461646174613a2055524920717565727920666f72206e6f60448201526e3732bc34b9ba32b73a103a37b5b2b760891b6064820152608401610384565b60006111bf60408051602081019091526000815290565b905060008151116111df57604051806020016040528060008152506110b3565b806111e9846113b8565b6040516020016111fa929190611874565b6040516020818303038152906040529392505050565b600061121b826107ce565b9050611228600083610db3565b6001600160a01b03811660009081526003602052604081208054600192906112519084906119e1565b909155505060008281526002602052604080822080546001600160a01b0319169055518391906001600160a01b038416907fddf252ad1be2c89b69c2b068fc378daa952ba7f163c4a11628f55a4df523b3ef908390a45050565b60006001600160a01b0384163b156113ad57604051630a85bd0160e11b81526001600160a01b0385169063150b7a02906112ef9033908990889088906004016118a3565b602060405180830381600087803b15801561130957600080fd5b505af1925050508015611339575060408051601f3d908101601f1916820190925261133691810190611797565b60015b611393573d808015611367576040519150601f19603f3d011682016040523d82523d6000602084013e61136c565b606091505b50805161138b5760405162461bcd60e51b8152600401610384906118f3565b805181602001fd5b6001600160e01b031916630a85bd0160e11b149050610b80565b506001949350505050565b6060816113dc5750506040805180820190915260018152600360fc1b602082015290565b8160005b811561140657806113f081611a5f565b91506113ff9050600a836119ae565b91506113e0565b60008167ffffffffffffffff81111561142157611421611ad0565b6040519080825280601f01601f19166020018201604052801561144b576020820181803683370190505b5090505b8415610b80576114606001836119e1565b915061146d600a86611a7a565b611478906030611996565b60f81b81838151811061148d5761148d611aba565b60200101906001600160f81b031916908160001a9053506114af600a866119ae565b945061144f565b8280546114c290611a24565b90600052602060002090601f0160209004810192826114e4576000855561152a565b82601f106114fd57805160ff191683800117855561152a565b8280016001018555821561152a579182015b8281111561152a57825182559160200191906001019061150f565b50611536929150611570565b5090565b50805461154690611a24565b6000825580601f10611556575050565b601f0160209004906000526020600020908101906107cb91905b5b808211156115365760008155600101611571565b600067ffffffffffffffff808411156115a0576115a0611ad0565b604051601f8501601f19908116603f011681019082821181831017156115c8576115c8611ad0565b816040528093508581528686860111156115e157600080fd5b858560208301376000602087830101525050509392505050565b80356001600160a01b038116811461161257600080fd5b919050565b60006020828403121561162957600080fd5b6110b3826115fb565b6000806040838503121561164557600080fd5b61164e836115fb565b915061070f602084016115fb565b60008060006060848603121561167157600080fd5b61167a846115fb565b9250611688602085016115fb565b9150604084013590509250925092565b600080600080608085870312156116ae57600080fd5b6116b7856115fb565b93506116c5602086016115fb565b925060408501359150606085013567ffffffffffffffff8111156116e857600080fd5b8501601f810187136116f957600080fd5b61170887823560208401611585565b91505092959194509250565b6000806040838503121561172757600080fd5b611730836115fb565b91506020830135801515811461174557600080fd5b809150509250929050565b6000806040838503121561176357600080fd5b61176c836115fb565b946020939093013593505050565b60006020828403121561178c57600080fd5b81356110b381611ae6565b6000602082840312156117a957600080fd5b81516110b381611ae6565b600080604083850312156117c757600080fd5b823567ffffffffffffffff8111156117de57600080fd5b8301601f810185136117ef57600080fd5b6117fe85823560208401611585565b95602094909401359450505050565b60006020828403121561181f57600080fd5b5035919050565b6000806040838503121561183957600080fd5b50508035926020909101359150565b600081518084526118608160208601602086016119f8565b601f01601f19169290920160200192915050565b600083516118868184602088016119f8565b83519083019061189a8183602088016119f8565b01949350505050565b6001600160a01b03858116825284166020820152604081018390526080606082018190526000906118d690830184611848565b9695505050505050565b6020815260006110b36020830184611848565b60208082526032908201527f4552433732313a207472616e7366657220746f206e6f6e20455243373231526560408201527131b2b4bb32b91034b6b83632b6b2b73a32b960711b606082015260800190565b60208082526031908201527f4552433732313a207472616e736665722063616c6c6572206973206e6f74206f6040820152701ddb995c881b9bdc88185c1c1c9bdd9959607a1b606082015260800190565b600082198211156119a9576119a9611a8e565b500190565b6000826119bd576119bd611aa4565b500490565b60008160001904831182151516156119dc576119dc611a8e565b500290565b6000828210156119f3576119f3611a8e565b500390565b60005b83811015611a135781810151838201526020016119fb565b83811115610a0b5750506000910152565b600181811c90821680611a3857607f821691505b60208210811415611a5957634e487b7160e01b600052602260045260246000fd5b50919050565b6000600019821415611a7357611a73611a8e565b5060010190565b600082611a8957611a89611aa4565b500690565b634e487b7160e01b600052601160045260246000fd5b634e487b7160e01b600052601260045260246000fd5b634e487b7160e01b600052603260045260246000fd5b634e487b7160e01b600052604160045260246000fd5b6001600160e01b0319811681146107cb57600080fdfea2646970667358221220c3535015340c8234a2c2c1216b671c53b2418864d3aa13d0146b8294626b59c964736f6c63430008070033",
  "immutableReferences": {},
  "source": "/***\n * \n * \n * \n * Written by Nawab Khairuzzaman Mohammad Kibria\n * Github Url : https://github.com/nawab69\n */\n\n// SPDX-License-Identifier: MIT\n\npragma solidity >=0.8.0 <0.9.0;\n\nimport \"@openzeppelin/contracts/token/ERC721/ERC721.sol\";\nimport \"@openzeppelin/contracts/token/ERC721/extensions/ERC721URIStorage.sol\";\nimport \"@openzeppelin/contracts/utils/Counters.sol\";\nimport \"@openzeppelin/contracts/token/ERC20/IERC20.sol\";\nimport \"@openzeppelin/contracts/security/ReentrancyGuard.sol\";\nimport \"./ERC2981.sol\";\n\ncontract SHILLIN is ERC721URIStorage, ERC2981,  ReentrancyGuard {\n    using Counters for Counters.Counter;\n    Counters.Counter private totalMinted;\n    address admin;\n    address marketplaceContract;\n\n    constructor() ERC721(\"SHILLIN\", \"SHILL\") ERC2981() {\n        admin = msg.sender;\n    }\n\n    function mint(string memory _tokenURI, uint _royalityPercentage) external nonReentrant\n    {\n        require( bytes(_tokenURI).length > 0 ,'needs token uri');\n        totalMinted.increment();\n        uint256 newItemId = totalMinted.current();\n        _mint(msg.sender, newItemId);\n        _setTokenURI(newItemId, _tokenURI);\n        _setReceiver(newItemId,msg.sender);\n        _setRoyaltyPercentage(newItemId,_royalityPercentage);\n        if(marketplaceContract != address(0)){\n            setApprovalForAll(marketplaceContract, true);\n        }\n    }\n    \n    function burn(uint tokenId) external {\n        require(_isApprovedOrOwner(msg.sender, tokenId), \"caller is not owner nor approved\");\n        _burn(tokenId);\n    }\n    \n    function setMarketPlace(address _marketplaceContract) public onlyAdmin() {\n        marketplaceContract = _marketplaceContract;\n    }\n    \n    function changeAdmin(address _adminAddress) public onlyAdmin() {\n        admin = _adminAddress;\n    }\n    \n    \n    modifier onlyAdmin() {\n        require(msg.sender == admin);\n        _;\n    }\n    \n    \n    function totalSupply() external  view  returns (uint256) {\n        return totalMinted.current();\n    }\n\n    \n}",
  "sourcePath": "/Users/nawab/Project/blockchain/shillzilla/contracts/SHILLIN.sol",
  "compiler": {
    "name": "solc",
    "version": "0.8.7+commit.e28d00a7.Emscripten.clang"
  },
  "schemaVersion": "3.4.3",
  "updatedAt": "2021-09-20T20:42:45.568Z",
  "networkType": "ethereum",
  "devdoc": {
    "kind": "dev",
    "methods": {
      "approve(address,uint256)": {
        "details": "See {IERC721-approve}."
      },
      "balanceOf(address)": {
        "details": "See {IERC721-balanceOf}."
      },
      "getApproved(uint256)": {
        "details": "See {IERC721-getApproved}."
      },
      "isApprovedForAll(address,address)": {
        "details": "See {IERC721-isApprovedForAll}."
      },
      "name()": {
        "details": "See {IERC721Metadata-name}."
      },
      "ownerOf(uint256)": {
        "details": "See {IERC721-ownerOf}."
      },
      "safeTransferFrom(address,address,uint256)": {
        "details": "See {IERC721-safeTransferFrom}."
      },
      "safeTransferFrom(address,address,uint256,bytes)": {
        "details": "See {IERC721-safeTransferFrom}."
      },
      "setApprovalForAll(address,bool)": {
        "details": "See {IERC721-setApprovalForAll}."
      },
      "supportsInterface(bytes4)": {
        "details": "See {IERC165-supportsInterface}."
      },
      "symbol()": {
        "details": "See {IERC721Metadata-symbol}."
      },
      "tokenURI(uint256)": {
        "details": "See {IERC721Metadata-tokenURI}."
      },
      "transferFrom(address,address,uint256)": {
        "details": "See {IERC721-transferFrom}."
      }
    },
    "version": 1
  },
  "userdoc": {
    "kind": "user",
    "methods": {},
    "version": 1
  }
}